{
  "_format": "hh-sol-artifact-1",
  "contractName": "Splitwise",
  "sourceName": "contracts/mycontract.sol",
  "abi": [
    {
      "inputs": [
        {
          "internalType": "address",
          "name": "creditor",
          "type": "address"
        },
        {
          "internalType": "uint32",
          "name": "amount",
          "type": "uint32"
        },
        {
          "internalType": "address[]",
          "name": "cycle_path",
          "type": "address[]"
        }
      ],
      "name": "add_IOU",
      "outputs": [],
      "stateMutability": "nonpayable",
      "type": "function"
    },
    {
      "inputs": [
        {
          "internalType": "address",
          "name": "debtor",
          "type": "address"
        },
        {
          "internalType": "address",
          "name": "creditor",
          "type": "address"
        }
      ],
      "name": "lookup",
      "outputs": [
        {
          "internalType": "uint32",
          "name": "ret",
          "type": "uint32"
        }
      ],
      "stateMutability": "view",
      "type": "function"
    },
    {
      "inputs": [
        {
          "internalType": "address",
          "name": "",
          "type": "address"
        },
        {
          "internalType": "address",
          "name": "",
          "type": "address"
        }
      ],
      "name": "map",
      "outputs": [
        {
          "internalType": "uint32",
          "name": "",
          "type": "uint32"
        }
      ],
      "stateMutability": "view",
      "type": "function"
    }
  ],
  "bytecode": "0x608060405234801561001057600080fd5b50610e16806100206000396000f3fe608060405234801561001057600080fd5b50600436106100415760003560e01c8063713584a614610046578063c1cbb45314610076578063dd033b8d146100a6575b600080fd5b610060600480360381019061005b91906107e7565b6100c2565b60405161006d9190610846565b60405180910390f35b610090600480360381019061008b91906107e7565b610158565b60405161009d9190610846565b60405180910390f35b6100c060048036038101906100bb91906108f2565b61018a565b005b60008060008473ffffffffffffffffffffffffffffffffffffffff1673ffffffffffffffffffffffffffffffffffffffff16815260200190815260200160002060008373ffffffffffffffffffffffffffffffffffffffff1673ffffffffffffffffffffffffffffffffffffffff16815260200190815260200160002060009054906101000a900463ffffffff16905092915050565b60006020528160005260406000206020528060005260406000206000915091509054906101000a900463ffffffff1681565b60003390508473ffffffffffffffffffffffffffffffffffffffff168173ffffffffffffffffffffffffffffffffffffffff16036101fd576040517f08c379a00000000000000000000000000000000000000000000000000000000081526004016101f4906109e9565b60405180910390fd5b600073ffffffffffffffffffffffffffffffffffffffff168573ffffffffffffffffffffffffffffffffffffffff160361026c576040517f08c379a000000000000000000000000000000000000000000000000000000000815260040161026390610a7b565b60405180910390fd5b60008383905090506000810361033b57846000808473ffffffffffffffffffffffffffffffffffffffff1673ffffffffffffffffffffffffffffffffffffffff16815260200190815260200160002060008873ffffffffffffffffffffffffffffffffffffffff1673ffffffffffffffffffffffffffffffffffffffff16815260200190815260200160002060008282829054906101000a900463ffffffff166103169190610aca565b92506101000a81548163ffffffff021916908363ffffffff1602179055505050610779565b838360018361034a9190610b0c565b81811061035a57610359610b40565b5b905060200201602081019061036f9190610b6f565b73ffffffffffffffffffffffffffffffffffffffff168273ffffffffffffffffffffffffffffffffffffffff16146103dc576040517f08c379a00000000000000000000000000000000000000000000000000000000081526004016103d390610c0e565b60405180910390fd5b838360008181106103f0576103ef610b40565b5b90506020020160208101906104059190610b6f565b73ffffffffffffffffffffffffffffffffffffffff168673ffffffffffffffffffffffffffffffffffffffff1614610472576040517f08c379a000000000000000000000000000000000000000000000000000000000815260040161046990610ca0565b60405180910390fd5b600085905060005b60018686905061048a9190610b0c565b81101561056e5760006104f78787848181106104a9576104a8610b40565b5b90506020020160208101906104be9190610b6f565b88886001866104cd9190610cc0565b8181106104dd576104dc610b40565b5b90506020020160208101906104f29190610b6f565b6100c2565b905060008163ffffffff1611610542576040517f08c379a000000000000000000000000000000000000000000000000000000000815260040161053990610d40565b60405180910390fd5b8263ffffffff168163ffffffff16101561055a578092505b50808061056690610d60565b91505061047a565b5060005b6001868690506105829190610b0c565b8110156106ae57816000808888858181106105a05761059f610b40565b5b90506020020160208101906105b59190610b6f565b73ffffffffffffffffffffffffffffffffffffffff1673ffffffffffffffffffffffffffffffffffffffff168152602001908152602001600020600088886001866106009190610cc0565b8181106106105761060f610b40565b5b90506020020160208101906106259190610b6f565b73ffffffffffffffffffffffffffffffffffffffff1673ffffffffffffffffffffffffffffffffffffffff16815260200190815260200160002060008282829054906101000a900463ffffffff1661067d9190610da8565b92506101000a81548163ffffffff021916908363ffffffff16021790555080806106a690610d60565b915050610572565b5080866106bb9190610da8565b9550856000808573ffffffffffffffffffffffffffffffffffffffff1673ffffffffffffffffffffffffffffffffffffffff16815260200190815260200160002060008973ffffffffffffffffffffffffffffffffffffffff1673ffffffffffffffffffffffffffffffffffffffff16815260200190815260200160002060008282829054906101000a900463ffffffff166107579190610aca565b92506101000a81548163ffffffff021916908363ffffffff1602179055505050505b50505050565b600080fd5b600080fd5b600073ffffffffffffffffffffffffffffffffffffffff82169050919050565b60006107b482610789565b9050919050565b6107c4816107a9565b81146107cf57600080fd5b50565b6000813590506107e1816107bb565b92915050565b600080604083850312156107fe576107fd61077f565b5b600061080c858286016107d2565b925050602061081d858286016107d2565b9150509250929050565b600063ffffffff82169050919050565b61084081610827565b82525050565b600060208201905061085b6000830184610837565b92915050565b61086a81610827565b811461087557600080fd5b50565b60008135905061088781610861565b92915050565b600080fd5b600080fd5b600080fd5b60008083601f8401126108b2576108b161088d565b5b8235905067ffffffffffffffff8111156108cf576108ce610892565b5b6020830191508360208202830111156108eb576108ea610897565b5b9250929050565b6000806000806060858703121561090c5761090b61077f565b5b600061091a878288016107d2565b945050602061092b87828801610878565b935050604085013567ffffffffffffffff81111561094c5761094b610784565b5b6109588782880161089c565b925092505092959194509250565b600082825260208201905092915050565b7f53656e6465722063616e6e6f74206265207468652073616d652061732063726560008201527f6469746f722e0000000000000000000000000000000000000000000000000000602082015250565b60006109d3602683610966565b91506109de82610977565b604082019050919050565b60006020820190508181036000830152610a02816109c6565b9050919050565b7f4372656469746f7220616464726573732063616e6e6f7420626520746865206560008201527f6d70747920616464726573732e00000000000000000000000000000000000000602082015250565b6000610a65602d83610966565b9150610a7082610a09565b604082019050919050565b60006020820190508181036000830152610a9481610a58565b9050919050565b7f4e487b7100000000000000000000000000000000000000000000000000000000600052601160045260246000fd5b6000610ad582610827565b9150610ae083610827565b9250828201905063ffffffff811115610afc57610afb610a9b565b5b92915050565b6000819050919050565b6000610b1782610b02565b9150610b2283610b02565b9250828203905081811115610b3a57610b39610a9b565b5b92915050565b7f4e487b7100000000000000000000000000000000000000000000000000000000600052603260045260246000fd5b600060208284031215610b8557610b8461077f565b5b6000610b93848285016107d2565b91505092915050565b7f53656e646572206d7573742062652061742074686520656e64206f662074686560008201527f206379636c6520706174682e0000000000000000000000000000000000000000602082015250565b6000610bf8602c83610966565b9150610c0382610b9c565b604082019050919050565b60006020820190508181036000830152610c2781610beb565b9050919050565b7f4372656469746f72206d7573742062652061742074686520626567696e6e696e60008201527f67206f6620746865206379636c6520706174682e000000000000000000000000602082015250565b6000610c8a603483610966565b9150610c9582610c2e565b604082019050919050565b60006020820190508181036000830152610cb981610c7d565b9050919050565b6000610ccb82610b02565b9150610cd683610b02565b9250828201905080821115610cee57610ced610a9b565b5b92915050565b7f496e76616c6964206379636c6520706174682e00000000000000000000000000600082015250565b6000610d2a601383610966565b9150610d3582610cf4565b602082019050919050565b60006020820190508181036000830152610d5981610d1d565b9050919050565b6000610d6b82610b02565b91507fffffffffffffffffffffffffffffffffffffffffffffffffffffffffffffffff8203610d9d57610d9c610a9b565b5b600182019050919050565b6000610db382610827565b9150610dbe83610827565b9250828203905063ffffffff811115610dda57610dd9610a9b565b5b9291505056fea2646970667358221220883843de742546b27efa535a26f5129bb369f3bb60774315f54df330b804072164736f6c63430008110033",
  "linkReferences": {},
  "deployedLinkReferences": {}
}